:020000040800F2
:1000000080070020CD0100082F180008D91600082D
:100010002D180008D3020008A91C000800000000E9
:100020000000000000000000000000005919000856
:10003000D502000800000000311800085B19000814
:10004000E7010008E7010008E7010008E7010008F0
:10005000E7010008E7010008E7010008E7010008E0
:10006000E7010008E7010008E7010008E7010008D0
:10007000E7010008E7010008E7010008E7010008C0
:10008000E7010008E7010008E7010008E7010008B0
:10009000E7010008E7010008E7010008E7010008A0
:1000A000E7010008E7010008E7010008E701000890
:1000B000C1190008E7010008E7010008E70100088E
:1000C000E7010008E7010008E7010008E701000870
:1000D000E7010008711C0008E7010008E7010008BB
:1000E000E7010008E7010008E7010008E701000850
:1000F000E7010008E7010008E7010008E701000840
:10010000E7010008E7010008E7010008E70100082F
:10011000E7010008E7010008E7010008E70100081F
:10012000E7010008E7010008E7010008E70100080F
:1001300000F002F800F03AF80AA090E8000C8244BF
:100140008344AAF10107DA4501D100F02FF8AFF29C
:10015000090EBAE80F0013F0010F18BFFB1A43F0A5
:10016000010318474C1C00006C1C0000103A24BF0F
:1001700078C878C1FAD8520724BF30C830C144BF0C
:1001800004680C607047000000230024002500264E
:10019000103A28BF78C1FBD8520728BF30C148BFEA
:1001A0000B6070471FB51FBD10B510BD00F058F8AB
:1001B0001146FFF7F7FF01F089FD00F076F803B470
:1001C000FFF7F2FF03BC00F07DF80000094880470C
:1001D00009480047FEE7FEE7FEE7FEE7FEE7FEE729
:1001E000FEE7FEE7FEE7FEE704480549054A064B41
:1001F00070470000BD19000831010008800100208F
:100200008007002080030020800300204FF00002C0
:1002100000B5134694469646203922BFA0E80C50FC
:10022000A0E80C50B1F12001BFF4F7AF090728BFD7
:10023000A0E80C5048BF0CC05DF804EB890028BF53
:1002400040F8042B08BF704748BF20F8022B11F07C
:10025000804F18BF00F8012B7047704770477047F8
:10026000754600F02BF8AE4605006946534620F06F
:100270000700854618B020B5FFF7B6FFBDE820405F
:100280004FF000064FF000074FF000084FF0000B52
:1002900021F00701AC46ACE8C009ACE8C009ACE805
:1002A000C009ACE8C0098D46704710B50446AFF3ED
:1002B00000802046BDE81040FFF781BF004870472E
:1002C0002001002001491820ABBEFEE726000200F5
:1002D0007047FEE770470022AFF3008030B50E4B49
:1002E000054601205C7A012C15D8587A00241C544C
:1002F000587A03EB800045605D7A03F108002A54C8
:10030000587A421C5A72303008703A2048702F20B8
:100310008870CC70002030BD1401002010B590F81A
:1003200021100022022905D00421816380F82020B9
:10033000012010BD01680B6823F00E030B600168FB
:100340000B6823F001030B6090F84030C46B01216F
:1003500001FA03F3636080F8211080F82020104632
:1003600010BD00002DE9F05F90F821100024022953
:1003700003D004218163012485E001680A6822F02A
:100380000E020A6001680A6822F001020A603F4E0C
:100390003E4FB215DFF8F4C0DFF8F090DFF8ECA0C4
:1003A000DFF8E8B0DFF8E4E00168783F13011502F8
:1003B000ACF1640CA9F15009AAF13C0AABF1280B8D
:1003C000AEF1140E4FF48018B14227D9B9420ED0C5
:1003D000614512D049451DD0514518D0594518D016
:1003E000714501D1424615E0294EB14201D10122A9
:1003F00010E0274E1436B14201D110220AE0244EFB
:100400002836B14206D0224A3C32914201D11A46E6
:1004100000E02A461E49091F0A602BE0B94213D0AA
:10042000614517D0494522D051451DD059451DD0B1
:10043000714501D142461AE0B14202D14FF08072BB
:1004400015E0134EB14201D1012210E0104E1436D6
:10045000B14201D110220AE00D4E2836B14206D039
:100460000B4A3C32914201D11A4600E02A46074924
:1004700080394A60012180F82110002180F8201085
:10048000416B01B188472046BDE8F09F80000240E3
:10049000080402402DE9F84FDFF8C891002409F163
:1004A000040A0AF1040B23460F270BF1040ED1E0D6
:1004B0000125A54006EA0502AA4276D1DFF8A8C1C7
:1004C0004E68A6EB0C0866452BD00DDC032E34D00D
:1004D00005DC36B3012E19D0022E2FD11BE0112ED0
:1004E00016D0122E2AD119E0B8F5881F19D006DCD3
:1004F000B8F5803F15D0B8F5801F1FD111E0B8F5D1
:10050000001F0ED0B8F5041F18D10AE0CB6815E023
:10051000CB681B1D12E0CB6808330FE0CB680C33AF
:100520000CE08B682BB1012B4FF0080303D0456121
:1005300004E0042302E0056100E00023FF2A01D863
:10054000064601E000F104064FEA840501D9A5F151
:100550002005D6F8008007FA05FC28EA0C0803FA03
:1005600005F548EA0508C6F800804D68ED0070D52D
:100570003E4DAE6946F00106AE61AD6924F003065A
:1005800005F0010500953A4D06EB050CDCF8085026
:10059000A607360F07FA06F825EA0805DFF8D48023
:1005A000404503D14FF0000825E052E0DFF8C88055
:1005B000404502D14FF001081DE0DFF8C080404502
:1005C00002D14FF0020816E0DFF8B480404502D1B6
:1005D0004FF003080FE0DFF8AC80404502D14FF048
:1005E000040808E0DFF8A080404502D14FF005087C
:1005F00001E04FF0060808FA06F848EA0508CCF8CA
:1006000008804D68D9F80060ED034D4601D51643CA
:1006100000E096432E604D68DAF80060AD03554661
:1006200001D5164300E096432E604D68DBF800606C
:10063000ED025D4601D5164300E096432E604D68FD
:10064000DEF80060AD02754601D5164300E0964322
:100650002E60641C0A681646E2407FF429AFBDE8AC
:10066000F88F00000004014000001110001002404B
:100670000000014000080140000C01400010014052
:100680000014014000180140001C01400AB1016142
:1006900070470904FBE700000148806870470000CC
:1006A0002000002002488168027811448160704770
:1006B00020000020074810B5016841F010010160DA
:1006C000032000F075F80F2000F006F800F024F881
:1006D000002010BD0020024070B50D4D04464FF4BF
:1006E0007A712878B1FBF0F00A490968B1FBF0F0A3
:1006F00000F071FC48B9102C07D200222146501E90
:1007000000F036F800206C6070BD012070BD000064
:10071000200000202C0000200C4808B5816941F021
:1007200001018161816901F001010091C16941F01C
:100730008051C161C06900F0805000900448416858
:1007400021F0E06141F00071416008BD00100240FD
:1007500000000140002809DB00F01F020121914048
:100760004009800000F1E020C0F80011704700004F
:10077000F0B40E4B1B680C46C3F30223C3F107050C
:10078000042D00D90425191D072901D2002300E0FA
:10079000DB1E012606FA05F1491E214099409E40C4
:1007A000761E16403143F0BC01F07FBA0CED00E03C
:1007B000064900F0070208684FF6FF03184040EAB8
:1007C0000220034A10430860704700000CED00E06F
:1007D0000000FA052DE9F0470F46050061D0434EB1
:1007E000306800F00700B84209D2306820F00700F6
:1007F00038433060306800F00700B84251D12868B3
:100800003B4C810712D5400703D5606840F4E06097
:1008100060602878000703D5606840F4605060602D
:100820006068A96820F0F000084360602878C0077D
:1008300028D06868012810D02168022810D08907C4
:1008400000292EDA616821F0030101436160FFF79E
:1008500023FF804641F288390DE021688903EFE7E4
:100860008901EDE7FFF718FFA0EB0801494502D920
:100870000320BDE8F0876068696800F00C00B0EB09
:10088000810FEFD1306800F00700B8420BD9306813
:1008900020F0070038433060306800F00700B842AD
:1008A00001D00120E5E72878400705D56068E968B0
:1008B00020F4E060084360602878000706D560688F
:1008C000296920F4605040EAC100606000F038F807
:1008D0006168084AC1F30311515CC84006490860C9
:1008E00006480068FFF7F8FE0020C2E7002002403B
:1008F00000100240981D00082C0000202400002059
:100900000448054900684968044AC1F30221515C62
:10091000C84070472C00002000100240A81D0008AD
:100920000448054900684968044AC1F3C221515C82
:10093000C84070472C00002000100240A81D00088D
:1009400012A185B00FC98DE80F0014A0144A0068E9
:1009500004905168134801F00C03042B10D0082BAD
:100960000ED1C1F38343C9031DF803000AD55168B2
:1009700004AAC1F34041515C0A4A5043B0FBF1F074
:1009800005B0704708494843FAE700000203040530
:10099000060708090A0B0C0D0E0F101001020000CB
:1009A0000010024000127A0000093D002DE9F84FC6
:1009B000040070D02078C04DC00749D06868C0F3EB
:1009C0008100012807D06868C0F38100022809D19E
:1009D0006868C00306D52868800339D56068002898
:1009E000E7D035E06068B0F5803F0BD010B1B0F5CE
:1009F000A02F11D0286820F480302860286820F4C7
:100A0000802002E0286840F480302860606890B15F
:100A1000FFF742FE06460AE0286840F4802028607E
:100A2000F0E700BFFFF738FE801B642873D8286802
:100A30008003F7D50CE0FFF72FFE064605E000BF68
:100A4000FFF72AFE801B6428F0D828688003F7D4BB
:100A500020789A4E80074FF001094FF0000839D5F1
:100A6000686810F00C0F07D06868C0F38100022896
:100A700009D16868C00306D42868800714D52069A6
:100A8000012808D110E02069B0B1C6F80090FFF746
:100A900003FE074605E00AE1FFF7FEFDC01B022842
:100AA000C4D828688007F7D52868616920F0F80065
:100AB00040EAC10028600DE0C6F80080FFF7ECFDB9
:100AC000074604E0FFF7E8FDC01B022823D828688A
:100AD0008007F7D4207800072CD57948A169D9B1CF
:100AE000C0F80090FFF7D8FD074604E0FFF7D4FDFB
:100AF000C01B02280FD8686A8007F7D571484FF4E9
:100B0000FA510068B0FBF1F0009000BF0098411E60
:100B10000091FAD20EE080E0C0F80080FFF7BCFD43
:100B2000074604E0FFF7B8FDC01B022875D8686AC5
:100B30008007F7D42078400760D5E8690027C00017
:100B400008D4E86940F08050E861E869012700F0C6
:100B5000805000905C480168C90513D40168834641
:100B600041F480710160FFF797FD824606E000BF07
:100B7000FFF792FDA0EB0A0064284ED8DBF80000D6
:100B8000C005F5D5E06801280AD008B1052813D0C2
:100B9000286A20F001002862286A20F0040002E0A0
:100BA000286A40F001002862E06841F2883B98B171
:100BB000FFF772FD82460BE0286A40F004002862CD
:100BC000EEE700BFFFF768FDA0EB0A0159455AD8D0
:100BD000286A8007F6D50CE0FFF75EFD824605E047
:100BE000FFF75AFDA0EB0A0159454CD8286A800747
:100BF000F6D41FB1E86920F08050E861E06988B35D
:100C00006968C1F38101022944D00228C6F86080D6
:100C100004D0FFF741FD044638E034E0FFF73CFD27
:100C2000074604E0FFF738FDC01B02282BD82868D0
:100C30008001F7D4206AB0F5803F05D16868A168CB
:100C400020F4003008436860D4E90801084369686B
:100C500021F4741108436860C6F86090FFF71CFD2A
:100C6000044606E025E000BFFFF716FD001B022842
:100C700009D828688001F7D51BE000BFFFF70CFDFD
:100C8000001B022802D90320BDE8F88F28688001E4
:100C9000F4D40EE00128F7D06868226A00F48031AD
:100CA000914204D1616A00F47010884201D00120A1
:100CB000EAE70020E8E7000000100240000042429E
:100CC000800442422C0000200070004070B50400F7
:100CD00009D0606A002540B125616561A56294F87C
:100CE000510040B10CE0012070BD6068B0F5827F1A
:100CF000F4D0E561F2E784F85050204600F040F867
:100D0000022084F851002068016821F04001016050
:100D1000A088218900F4827001F404410843A1896C
:100D200001F400610843217C01F002010843217DA8
:100D300001F001010843218B01F400710843217F78
:100D400001F03801084394F8201001F080010843B5
:100D5000218D01F40051084321680860A069042135
:100D600001EA1040216848602068C16921F40061EF
:100D7000C1616565012084F85100002070BD00004C
:100D800030B585B000240094019402940394006867
:100D90001549884225D11548C16941F48041C16196
:100DA000C16901F480410491816941F008018161C8
:100DB00080690F4D00F0080004904FF4204000902F
:100DC000022001900320039069462846FFF762FB4A
:100DD0004FF48040CDE90004694628460294FFF7AD
:100DE00059FB05B030BD0000003800400010024043
:100DF000000C01402DE9F84F044690F85000002700
:100E00000A9E1D4692468B464FF0010901280ED0DE
:100E1000012084F85000FFF73FFC804694F8510011
:100E2000616801280CD0B1F5827F07D102E0022071
:100E3000BDE8F88FA16809B9042801D00227C2E0F3
:100E4000BBF1000F27D0BAF1000F24D01DB394F8E6
:100E50005100042802D0052084F85100002060656C
:100E6000C4F838A0E587A587C4F830B0E586A58624
:100E70002064606420680168490603D4016841F079
:100E800040010160E068B0F5006F606805D0E8B32C
:100E9000012D46D07FE0012795E008B1012D39D121
:100EA000206B21680088C860206B801C2063E08E66
:100EB000401EE0862EE02068816889070FD5E18E0C
:100EC00069B1B9F1010F0AD1216B0988C160206BAA
:100ED000801C2063E08E401EE0864FF000092068F1
:100EE0008168C9070CD0E18F51B1C068A16B08803F
:100EF000A06B801CA063E08F401EE0874FF00109CB
:100F0000FFF7CAFBA0EB0800B04200E009E001D304
:100F1000701C50D1E08E0028CDD1E08F0028CAD1BE
:100F20003FE0206B216800780873206B401C206331
:100F3000E08E401EE0862EE02068816889070FD58C
:100F4000E18E69B1B9F1010F0AD1216B0978017302
:100F5000206B401C2063E08E401EE0864FF00009AD
:100F600020688168C9070CD0E18F51B1C068A16BBE
:100F70000870A06B401CA063E08F401EE0874FF01C
:100F80000109FFF789FBA0EB0800B04202D3701CF7
:100F900001D010E07EB1E08E0028CDD1E08F002896
:100FA000CAD142463146204600F04EFC28B1012706
:100FB0002020606507E0032705E0A06818B92068D5
:100FC000C16880680090012084F85100002084F8F6
:100FD000500038462CE710B5401EB0F1807F01D399
:100FE000012010BD4FF0E02460610F21601700F078
:100FF0005CFE0020A06107202061002010BD70472A
:101000007047000070B590F83C20012A2CD00124D4
:1010100080F83C40022280F83D2003685A689D68B1
:1010200022F070060A6832435A60104B02689A42F6
:101030000ED00F4B9A420BD0B2F1804F08D00D4B1F
:101040009A4205D00C4B9A4202D00C4B9A4204D1E2
:10105000496825F080031943916080F83D400021E4
:1010600080F83C10084670BD022070BD002C014085
:10107000003401400004004000080040000C004023
:1010800010B5040003D094F83D0010B107E0012032
:1010900010BD002084F83C00204600F01FF802201C
:1010A00084F83D00211D206800F090FC012084F8A8
:1010B000460084F83E0084F83F0084F8400084F83D
:1010C000410084F8420084F8430084F8440084F826
:1010D000450084F83D00002010BD000008B5006800
:1010E000B0F1804F12D10A48C16941F00101C161DC
:1010F000C069002200F00100009011461C20FFF79B
:1011000037FBBDE808401C20FFF724BB08BD0000EA
:101110000010024090F83D10012901D001207047D5
:10112000022180F83D100168CA6842F00102CA60DD
:1011300000680E4988420ED00D4988420BD0B0F1AC
:10114000804F08D00B49884205D00B49884202D015
:101150000A49884204D1816801F00701062903D0B9
:10116000016841F00101016000207047002C01403E
:10117000003401400004004000080040000C004022
:1011800070B5044690F83C00012817D0012584F87A
:101190003C50022084F83D002068826822F07702EB
:1011A00022F47F4282600868502830D00DDC20286D
:1011B0004DD005DC98B310283BD148E0022070BD2B
:1011C000302844D0402834D139E0602828D0702815
:1011D00006D0B0F5805F2CD0B0F5005F29D10AE0D1
:1011E000CB68D1E90121206800F036FC20688168D5
:1011F00041F0770109E0CB68D1E90121206800F0D6
:101200002BFC2068816841F48041816011E0CA684C
:101210004968206800F032FC5021206807E016E0A1
:10122000CA684968206800F03AFC6021206800F034
:101230001DFC84F83D50002084F83C0070BDCA6855
:101240004968206800F01AFC40212068EFE7226816
:1012500001461046EBE7704770B504460068016927
:101260004FF00005C943890715D4C168C9438907F0
:1012700011D4E91E01610120207720688069800770
:10128000204602D0FFF7E7FF04E000F098F8204680
:1012900000F096F8257720680169C943490717D4FB
:1012A000C168C943490713D46FF0040101610220EA
:1012B00020772068806910F4407F204602D0FFF735
:1012C000CAFF04E000F07BF8204600F079F82577AB
:1012D00020680169C943090716D4C168C9430907D1
:1012E00012D46FF008010161042020772068C069E2
:1012F0008007204602D0FFF7AEFF04E000F05FF861
:10130000204600F05DF8257720680169C943C906C9
:1013100017D4C168C943C90613D46FF01001016125
:10132000082020772068C06910F4407F204602D052
:10133000FFF791FF04E000F042F8204600F040F88B
:10134000257720680169C943C90708D1C168C94325
:10135000C90704D1891E0161204600F033F82068D6
:101360000169C943090609D4C168C943090605D4FE
:101370006FF0800101612046FFF741FE206801699E
:10138000C943490609D4C168C943490605D46FF069
:1013900040010161204600F021F820680169C9433D
:1013A00089060BD4C168C943890607D46FF02001B0
:1013B00001612046BDE87040FFF722BE70BD704756
:1013C000704700000349884203D103490888401C44
:1013D0000880704788000020000000207047704798
:1013E00070470000F8B5026804461068D168536978
:1013F00010F00F0F4FF0000553D003F0010601F479
:10140000907737435FD0C20705D0CA0503D5226C59
:1014100042F001022264420705D5DA0703D0226CAC
:1014200042F002022264820705D5DA0703D0226C5B
:1014300042F004022264020707D501F02002324381
:1014400003D0226C42F008022264226C002A34D0BD
:10145000800604D5880602D5204600F052FB20689D
:101460004069216CC0F38010090700D430B32046D6
:1014700000F02FFB2068416949061BD5416921F026
:1014800040014161A06BA8B158494163A06BFEF7D0
:1014900069FF002811D0A06B416B01B0BDE8F0409E
:1014A000084783060FD58B060DD52046BDE8F840CA
:1014B00000F027BB2046FFF793FFF8BD2046FFF75B
:1014C0008FFF2564F8BD266B2023012E52D1C6065E
:1014D00050D5CE064ED51068506800905069400631
:1014E0002AD5A16B086840680004000CEAD0A68DDC
:1014F0008642E7D9E0858869202818D0D06820F492
:101500008070D0602068416921F00101416120684C
:10151000416921F04001416184F83E302563206833
:10152000C16821F01001C160A06BFEF7F7FEA08D2D
:10153000E18D401A81B219E0A08DE18D401A81B28F
:10154000E08D0028BED00029BCD0D06820F4907077
:10155000D0602068426922F00102426184F83E3086
:1015600025632068C26822F01002C2602046FFF79F
:1015700036FFF8BD05062BD50D0629D594F83D009C
:101580002128F6D1A068B0F5805F01D12069B0B103
:10159000206A411C2162216800784860E08C401E6E
:1015A0000004000CE084E4D12068C16821F08001CF
:1015B000C1602068C16841F04001C160F8BD206A87
:1015C0000088C0F308005060206A801C2062E5E7B4
:1015D0004006F3D54806F1D5D168204621F04001F8
:1015E000D16084F83D3000F076F8F8BDC31A0008E9
:1015F00070B5040004D094F83D00002510B106E059
:10160000012070BD84F83C50204600F023F82420CF
:1016100084F83D002068C16821F40051C160204673
:1016200000F0CAFA2068016921F490410161206844
:10163000416921F02A0141612068C16841F40051EB
:10164000C1602564202084F83D0084F83E0000201D
:1016500070BD000030B585B0002400940194029460
:1016600003940068184988422CD11848816941F4D4
:1016700080418161816901F480410491816941F077
:10168000040181618069124D00F0040004904FF460
:1016900000700090022001900320039069462846C4
:1016A000FEF7F8FE2815CDE90004694628460294A5
:1016B000FEF7F0FE002211462520FFF759F82520FD
:1016C000FFF748F805B030BD003801400010024077
:1016D0000008014070477047FEE7000010B504495C
:1016E0000448FEF7F8FD0249491E087010BD0000CD
:1016F0001900002004000020F0B585B000251E4828
:101700000095019502950395816941F01001816171
:10171000816901F010010491816941F00401816146
:10172000816901F004010491816941F0080181613E
:101730008069124E00F0080004900022012130461A
:10174000FEF7A4FF0E4F002208213846FEF79EFF49
:1017500001240094CDE90145694630460394FEF723
:1017600099FE08208DE83100694638460394FEF75B
:1017700091FE05B0F0BD00000010024000100140D5
:10178000000801400F4810B50D4901604FF4827107
:10179000416000218160C1604FF400720161C0E9C5
:1017A00005120822C0E90721416281620A21C16253
:1017B000FFF78CFA002801D072B6FEE710BD0000DA
:1017C000003800403000002010B586B000241648D4
:1017D000009401940294039404944FF08041059482
:1017E000016049F63F41C0E901140A21C0E9031430
:1017F0008461FFF745FC08B172B6FEE74FF48050F4
:10180000009069460848FFF7BBFC08B172B6FEE7D6
:10181000049404A904480594FFF7F4FB002801D0C0
:1018200072B6FEE706B010BD88000020FEE7FEE7B6
:101830007047000003480021018001880229FCD381
:10184000704700000000002038B50B4600920446A7
:101850000022802100F008F8002804D0606D40F0DC
:1018600020006065032038BD2DE9F8431E469146EF
:1018700088460446089DFEF70FFF401B351AFEF709
:101880000BFF074625480068C0F3CB30684338E0BB
:10189000701C37D0FEF700FFC01BA84203D215B161
:1018A000009860B32CE02068416821F0E0014160BD
:1018B0006068B0F5827F0BD1A068B0F5004F02D010
:1018C000B0F5806F04D12068016821F0400101600B
:1018D000A06AB0F5005F09D12068016821F40051C9
:1018E00001602068016841F400510160012084F822
:1018F0005100002084F850000320BDE8F883002543
:10190000401E00902068816838EA010004D0002160
:101910004945BDD10020F0E70121F9E72C00002066
:1019200001B582B000208DF804004FF48050009083
:10193000012301AA02A90648FFF75CFA20B10022A0
:1019400001210448FEF7A2FE9DF804000EBD000030
:1019500030000020001001407047FEF7A3BE30B5F4
:101960008FB028216846FEF751FC14210AA8FEF723
:101970004DFC01210804CDE9001000240294022549
:101980000491CDE907504FF4402009906846FFF7D5
:101990000DF808B172B6FEE70F20CDE90A054FF445
:1019A0008060CDE90C4001210AA80E94FEF712FFD9
:1019B000002801D072B6FEE70FB030BD70470000BE
:1019C0000148FFF749BC000088000020F0B502681C
:1019D0001C4B1D4D1D4E1E4F1E4C4FF0804C98420F
:1019E00009D0A04207D0604505D0A84203D0B0423C
:1019F00001D0B84204D122F0700E4A6842EA0E02C9
:101A0000984209D0A04207D0604505D0A84203D033
:101A1000B04201D0B84203D122F44075CA682A43CB
:101A20004D6922F080022A4302608A68C2620A6815
:101A30008262984201D0A04201D10969016301216B
:101A40004161F0BD002C014000040040000800404E
:101A5000000C00400034014010B5846842EA0322C3
:101A600024F47F440A432243826010BD826822F03E
:101A700070020A4342F007018160704710B5036AA3
:101A8000046A24F001040462846924F0F00444EA46
:101A9000021423F00A020A438461026210BD10B5E9
:101AA000036A23F0100303628369046A23F470431A
:101AB00043EA023224F0A00343EA01118261016289
:101AC00010BD10B5406A0021C185C184FFF788FCB4
:101AD00010BD0168CA6822F49072CA6001684A6940
:101AE00022F001024A61016B012904D10168CA6830
:101AF00022F01002CA60202180F83E10002101630C
:101B0000704708B590F83E10222901D0022008BD88
:101B100082684FF480539A4201D1016921B1816AF0
:101B20009A421BD04AB10AE00268816A5268C2F345
:101B300008020A80816A891C08E0026972B10268A1
:101B4000526802F07F020A70816A491C8162C18D6D
:101B5000491E0904090CC18503D019E002685268C6
:101B6000F1E70168CA6822F02002CA600168CA6809
:101B700022F48072CA6001684A6922F001024A6157
:101B8000202180F83E10016B012903D0FFF7A2FD50
:101B9000002008BD002101630168CA6822F010021C
:101BA000CA6001680A68D20602D50A6849680091CD
:101BB000818DFFF714FCEBE770B5044600680169FE
:101BC000E26821F44051114301612169A068084392
:101BD000616908432168CA6841F20C639A43024371
:101BE000CA6020684169A26921F4407111434161D2
:101BF0001E492068884202D1FEF792FE01E0FEF7FE
:101C00007FFE00EBC00101EB0012606864218000E0
:101C1000B2FBF0F3B3FBF1F36FF018067343B2FBC2
:101C2000F0F5B2FBF0F605EB8305322303EB051567
:101C3000B5FBF1F5B6FBF1F605F0F00505EB061581
:101C4000B2FBF0F6B2FBF0F0B0FBF1F06FF018026F
:101C5000504306EB800003EB0010B0FBF1F021686D
:101C600000F00F002844886070BD0000003801407B
:101C70000148FFF7B7BB0000D00000200248012157
:101C800001700078704700000300002001207047B9
:101C90000020704702480121017000787047000061
:101CA0000300002000207047FEE70907090E002806
:101CB00004DB00F1E02080F80014704700F00F0012
:101CC00000F1E02080F8141D70470000FEF7F2FCE0
:101CD000FFF745FEFFF710FDFFF754FDFFF774FD1A
:101CE0000F480E490C2201604FF461314160002120
:101CF0008160C160C0E904128161C161FFF778FCB5
:101D000008B172B6FEE7FFF7E9FC05484838FFF76F
:101D100001FAFFF78FFD00F005F8FEE700380140FB
:101D2000D00000202DE9F041012211461648FEF7AF
:101D3000ADFC164900200870154D3020EE69E861B1
:101D40002846FEF7C3FF134F012208213846FEF74D
:101D50009DFC0024FF20FFF7E3FD641CE4B20A2C85
:101D6000F8D30B48EE61FEF7B1FF00220821384698
:101D7000FEF78CFC3520FFF7D3FD5320FFF7D0FD95
:101D80000020BDE8F08100000010014002000020AA
:101D900030000020000801400000000000000000AA
:101DA0000102030406070809000000000102030401
:101DB000D01D000800000020300000006C01000869
:101DC000001E0008300000205007000088010008B5
:101DD000000000017D1C0008951C0008911C0008F3
:101DE000A51C00088D1C0008000000000000000079
:101DF0000100000010000000000000000024F400BA
:0400000508000131BD
:00000001FF
