:020000040800F2
:10000000A02C0020E1010008531E0008691C000814
:10001000511E00084707000885270008000000005F
:100020000000000000000000000000009521000812
:100030004907000800000000551E0008972100082D
:10004000FB010008FB010008FB010008FB010008A0
:10005000FB010008FB010008FB010008FB01000890
:100060004B070008FB010008FB010008FB0100082A
:10007000FB010008FB010008FB010008FB01000870
:10008000FB010008FB010008FB010008FB01000860
:10009000FB010008FB010008FB010008FB01000850
:1000A000FB010008FB010008FB010008FB01000840
:1000B000FD210008FB010008FB010008FB0100080E
:1000C000FB010008FB010008FB010008FB01000820
:1000D000FB01000811250008FB010008FB010008D6
:1000E000FB010008FB010008FB010008FB01000800
:1000F000FB010008FB010008FB010008FB010008F0
:10010000FB010008FB010008FB010008FB010008DF
:10011000FB010008FB010008FB010008FB010008CF
:10012000FB010008FB010008FB010008FB010008BF
:1001300000F002F800F045F80AA090E8000C8244B4
:100140008344AAF10107DA4501D100F03AF8AFF291
:10015000090EBAE80F0013F0010F18BFFB1A43F0A5
:1001600001031847404A0000604A0000103A24BFCB
:1001700078C878C1FAD8520724BF30C830C144BF0C
:1001800004680C607047000000230024002500264E
:10019000103A28BF78C1FBD8520728BF30C148BFEA
:1001A0000B607047642900F07780752900F0748037
:1001B000782900F0AD80002070471FB51FBD10B535
:1001C00010BD00F086FA1146FFF7F7FF03F0E2FEDC
:1001D00000F0A4FA03B4FFF7F2FF03BC00F0ACFA9E
:1001E0000948804709480047FEE7FEE7FEE7FEE7CB
:1001F000FEE7FEE7FEE7FEE7FEE7FEE70448054907
:10020000054A064B70470000F9210008310100083B
:10021000A0260020A02C0020A0280020A02800203C
:100220000FB41CB5074B06AA7B446946009005989D
:1002300000F037FA0020694600F046FA1CBC5DF871
:1002400014FB00009D04000070B504468569006839
:10025000C10601D5302600E02026C00707D070BDBA
:10026000D4E9012130469047206A401C20626D1E6F
:10027000F6D570BD70B5044685690078C00707D112
:1002800070BDD4E9012120209047206A401C2062E3
:100290006D1EF6D570BD00002DE9F0410646002424
:1002A00010687529314616A510D0AFF300800028DC
:1002B00002DA404213A507E031688A0701D512A58A
:1002C00002E0490704D511A5012401E0AFF3008045
:1002D00000210A2206F1240709E0B0FBF2FCB0FB82
:1002E000F2F302FB1C00303078541846491C0028F9
:1002F000F3D123462A463046BDE8F04100F073B9F9
:10030000000000002D0000002B0000002000000075
:1003100070B504460D4621461068AFF30080218871
:10032000090502D50F4A7A4402E00E4A7A440E3299
:10033000002104F1240305E000F00F060009965D9A
:100340005E54491C0028F7D120780023000704D50B
:10035000702D02D009B1022311322046BDE8704051
:1003600000F041B93E4800002DE9F05F894604469F
:100370004FF0000ADFF874B1FB44C0F820A020461B
:10038000E1688847002874D0252806D0D4E90121E7
:100390009047206A401C2062F1E700265F46204615
:1003A000E16888472028054607DB312D05D27819FA
:1003B00010F8200C08B10643F1E7B00701D526F08C
:1003C0000406C4F81CA00027C4F818A02A2D09D0E0
:1003D000284602F0E8F938B304EB8708303DC8F846
:1003E000185019E059F8041B204604EB870291616C
:1003F000E1688847012F054618D1E069002820DA16
:1004000026F020061DE0D8F8180000EB800005EB70
:1004100040003038C8F818002046E1688847054693
:1004200002F0C1F90028EED1012F0AD02E2D08D1FB
:100430002046E16888477F1C0546022F46F02006CB
:10044000C4DBA069002803DA404246F00106A0613F
:10045000F00701D026F010066C2D0BD0682D09D0C6
:100460004C2D39D06A2D35D0742D35D07A2D33D01E
:1004700016E038E0E1682F4620468847B842054636
:1004800009D16C2F26D04FF48060E16806432046E6
:100490008847054604E06C2F1AD04FF4807006435D
:1004A0000DB3A5F14100192802D8203546F40066A5
:1004B0004A462946204626604E46FFF773FE80B125
:1004C00001280BD0F61D26F0070000F1080956E7B9
:1004D0004020E4E78020D8E70020D6E706F10409B1
:1004E0004DE7284652E7206ABDE8F09F1448000017
:1004F00010B5431C02E010F8011B71B18107FAD15D
:100500004FF0013202C88C1A8C4314EAC211F9D0A0
:10051000C01A0A0603D0C01E10BDC01A10BD0A04BE
:1005200001D0801E10BD0902FCD0401E10BD10B5C8
:10053000203AC0F00B80B1E81850203AA0E81850DB
:10054000B1E81850A0E81850BFF4F5AF5FEA027C9C
:1005500024BFB1E81850A0E8185044BF18C918C00B
:10056000BDE810405FEA827C24BF51F8043B40F8AC
:10057000043B08BF7047D20728BF31F8023B48BF91
:1005800011F8012B28BF20F8023B48BF00F8012BCF
:1005900070474FF0000200B5134694469646203946
:1005A00022BFA0E80C50A0E80C50B1F12001BFF42C
:1005B000F7AF090728BFA0E80C5048BF0CC05DF892
:1005C00004EB890028BF40F8042B08BF704748BFE0
:1005D00020F8022B11F0804F18BF00F8012B704754
:1005E0007047704770472DE9F0470D46994692468F
:1005F000044600F124080168880604D5E06921F06A
:100600001001216000E00120A84201DD471B00E04D
:100610000027A1697A1902EB0900081AA061207865
:10062000C00602D42046FFF70FFE002608E0D4E9FA
:1006300001211AF806009047206A401C761C2062AF
:100640004E45F4DB2078C0060AD52046FFF7FCFDB6
:1006500006E0D4E9012130209047206A401C206246
:10066000381EA7F10107F4DC07E0D4E9012118F8EE
:1006700005009047206A401C2062281EA5F1010554
:10068000F3DC2046FFF7F6FD2078000602D50220B5
:10069000BDE8F0870120FBE701694A1C0261087888
:1006A000704700B58FB0CDE90131002105910549B2
:1006B0007944CDE9031011466846FFF755FE0FB0A7
:1006C00000BD0000E5FFFFFF0A6802F8010B0A60A9
:1006D0007047754600F02CF8AE4605006946534653
:1006E00020F00700854618B020B5FFF787FDBDE86C
:1006F00020404FF000064FF000074FF000084FF089
:10070000000B21F00701AC46ACE8C009ACE8C00919
:10071000ACE8C009ACE8C0098D46704710B5044686
:10072000AFF300802046BDE81040FFF753BD000046
:10073000004870474026002001491820ABBEFEE764
:10074000260002007047FEE77047042000F0E2B880
:10075000002200F001B8000030B50E4B0546012024
:100760005C7A012C15D8587A00241C54587A03EB73
:10077000800045605D7A03F108002A54587A421CD3
:100780005A72303008703A2048702F208870CC7030
:10079000002030BD3426002010B590F82110002232
:1007A000022905D00421816380F82020012010BD9A
:1007B00001680B6823F00E030B6001680B6823F0DF
:1007C00001030B6090F84030C46B012101FA03F380
:1007D000636080F8211080F82020104610BD0000D2
:1007E0002DE9F05F90F821100024022903D00421A4
:1007F0008163012485E001680A6822F00E020A6024
:1008000001680A6822F001020A603F4E3E4FB215AD
:10081000DFF8F4C0DFF8F090DFF8ECA0DFF8E8B024
:10082000DFF8E4E00168783F13011502ACF1640CD5
:10083000A9F15009AAF13C0AABF1280BAEF1140E54
:100840004FF48018B14227D9B9420ED0614512D079
:1008500049451DD0514518D0594518D0714501D191
:10086000424615E0294EB14201D1012210E0274E47
:100870001436B14201D110220AE0244E2836B1428A
:1008800006D0224A3C32914201D11A4600E02A4663
:100890001E49091F0A602BE0B94213D0614517D0E9
:1008A000494522D051451DD059451DD0714501D132
:1008B00042461AE0B14202D14FF0807215E0134E69
:1008C000B14201D1012210E0104E1436B14201D1E3
:1008D00010220AE00D4E2836B14206D00B4A3C32B7
:1008E000914201D11A4600E02A46074980394A6000
:1008F000012180F82110002180F82010416B01B106
:1009000088472046BDE8F09F80000240080402406E
:1009100070470000044910B50A68024202D008601E
:10092000FFF7F6FF10BD0000140401402DE9F84F59
:10093000DFF8C891002409F1040A0AF1040B2346E8
:100940000F270BF1040ED1E00125A54006EA0502B0
:10095000AA4276D1DFF8A8C14E68A6EB0C0866451E
:100960002BD00DDC032E34D005DC36B3012E19D08C
:10097000022E2FD11BE0112E16D0122E2AD119E0F3
:10098000B8F5881F19D006DCB8F5803F15D0B8F54A
:10099000801F1FD111E0B8F5001F0ED0B8F5041F5D
:1009A00018D10AE0CB6815E0CB681B1D12E0CB68BC
:1009B00008330FE0CB680C330CE08B682BB1012BB4
:1009C0004FF0080303D0456104E0042302E0056111
:1009D00000E00023FF2A01D8064601E000F10406EA
:1009E0004FEA840501D9A5F12005D6F8008007FA61
:1009F00005FC28EA0C0803FA05F548EA0508C6F8DC
:100A000000804D68ED0070D53E4DAE6946F00106A0
:100A1000AE61AD6924F0030605F0010500953A4D7D
:100A200006EB050CDCF80850A607360F07FA06F8A7
:100A300025EA0805DFF8D480404503D14FF00008CF
:100A400025E052E0DFF8C880404502D14FF00108B0
:100A50001DE0DFF8C080404502D14FF0020816E0EB
:100A6000DFF8B480404502D14FF003080FE0DFF813
:100A7000AC80404502D14FF0040808E0DFF8A080C8
:100A8000404502D14FF0050801E04FF0060808FA92
:100A900006F848EA0508CCF808804D68D9F80060E7
:100AA000ED034D4601D5164300E096432E604D6898
:100AB000DAF80060AD03554601D5164300E09643D1
:100AC0002E604D68DBF80060ED025D4601D51643EF
:100AD00000E096432E604D68DEF80060AD0275467A
:100AE00001D5164300E096432E60641C0A68164642
:100AF000E2407FF429AFBDE8F88F00000004014018
:100B000000001110001002400000014000080140E8
:100B1000000C014000100140001401400018014089
:100B2000001C01400AB1016170470904FBE70000A5
:100B3000014880687047000030000020024881684A
:100B4000027811448160704730000020074810B5DA
:100B5000016841F010010160032000F075F80F20DA
:100B600000F006F800F024F8002010BD002002403C
:100B700070B50D4D04464FF47A712878B1FBF0F052
:100B80000A490968B1FBF0F000F093FC48B9102C59
:100B900007D200222146501E00F036F800206C607B
:100BA00070BD012070BD0000300000203C0000201E
:100BB0000C4808B5816941F001018161816901F04A
:100BC00001010091C16941F08051C161C06900F02B
:100BD000805000900448416821F0E06141F00071CC
:100BE000416008BD0010024000000140002809DB00
:100BF00000F01F02012191404009800000F1E02037
:100C0000C0F8001170470000F0B40E4B1B680C4692
:100C1000C3F30223C3F10705042D00D90425191DD0
:100C2000072901D2002300E0DB1E012606FA05F1A8
:100C3000491E214099409E40761E16403143F0BC2B
:100C400001F0A1BD0CED00E0064900F007020868C4
:100C50004FF6FF03184040EA0220034A10430860A1
:100C6000704700000CED00E00000FA052DE9F047A8
:100C70000F46050061D0434E306800F00700B842CF
:100C800009D2306820F0070038433060306800F047
:100C90000700B84251D128683B4C810712D5400764
:100CA00003D5606840F4E06060602878000703D5F1
:100CB000606840F4605060606068A96820F0F000EF
:100CC000084360602878C00728D06868012810D0E1
:100CD0002168022810D0890700292EDA616821F0E6
:100CE000030101436160FFF723FF804641F2883929
:100CF0000DE021688903EFE78901EDE7FFF718FFB1
:100D0000A0EB0801494502D90320BDE8F0876068DF
:100D1000696800F00C00B0EB810FEFD1306800F093
:100D20000700B8420BD9306820F007003843306024
:100D3000306800F00700B84201D00120E5E72878CC
:100D4000400705D56068E96820F4E060084360600A
:100D50002878000706D56068296920F4605040EAC9
:100D6000C100606000F038F86168084AC1F30311FF
:100D7000515CC8400649086006480068FFF7F8FE65
:100D80000020C2E70020024000100240D6450008C3
:100D90003C000020340000200448054900684968F0
:100DA000044AC1F30221515CC84070473C00002056
:100DB00000100240E64500080448054900684968FB
:100DC000044AC1F3C221515CC84070473C00002076
:100DD00000100240E645000812A185B00FC98DE859
:100DE0000F0014A0144A006804905168134801F0E1
:100DF0000C03042B10D0082B0ED1C1F38343C9037D
:100E00001DF803000AD5516804AAC1F34041515CA2
:100E10000A4A5043B0FBF1F005B070470849484317
:100E2000FAE7000002030405060708090A0B0C0D87
:100E30000E0F1010010200000010024000127A0094
:100E400000093D002DE9F84F040070D02078C04D16
:100E5000C00749D06868C0F38100012807D06868DE
:100E6000C0F38100022809D16868C00306D528684C
:100E7000800339D560680028E7D035E06068B0F5B8
:100E8000803F0BD010B1B0F5A02F11D0286820F40E
:100E900080302860286820F4802002E0286840F430
:100EA00080302860606890B1FFF742FE06460AE095
:100EB000286840F480202860F0E700BFFFF738FE84
:100EC000801B642873D828688003F7D50CE0FFF7EF
:100ED0002FFE064605E000BFFFF72AFE801B6428B0
:100EE000F0D828688003F7D420789A4E80074FF016
:100EF00001094FF0000839D5686810F00C0F07D0D1
:100F00006868C0F38100022809D16868C00306D46C
:100F10002868800714D52069012808D110E02069CD
:100F2000B0B1C6F80090FFF703FE074605E00AE1FE
:100F3000FFF7FEFDC01B0228C4D828688007F7D53C
:100F40002868616920F0F80040EAC10028600DE0DF
:100F5000C6F80080FFF7ECFD074604E0FFF7E8FD68
:100F6000C01B022823D828688007F7D42078000700
:100F70002CD57948A169D9B1C0F80090FFF7D8FD08
:100F8000074604E0FFF7D4FDC01B02280FD8686AAB
:100F90008007F7D571484FF4FA510068B0FBF1F0C3
:100FA000009000BF0098411E0091FAD20EE080E050
:100FB000C0F80080FFF7BCFD074604E0FFF7B8FD6E
:100FC000C01B022875D8686A8007F7D420784007CC
:100FD00060D5E8690027C00008D4E86940F0805077
:100FE000E861E869012700F0805000905C480168E2
:100FF000C90513D40168834641F480710160FFF78D
:1010000097FD824606E000BFFFF792FDA0EB0A00C5
:1010100064284ED8DBF80000C005F5D5E06801284B
:101020000AD008B1052813D0286A20F001002862F0
:10103000286A20F0040002E0286A40F001002862DB
:10104000E06841F2883B98B1FFF772FD82460BE001
:10105000286A40F004002862EEE700BFFFF768FD51
:10106000A0EB0A0159455AD8286A8007F6D50CE04A
:10107000FFF75EFD824605E0FFF75AFDA0EB0A018F
:1010800059454CD8286A8007F6D41FB1E86920F08A
:101090008050E861E06988B36968C1F38101022981
:1010A00044D00228C6F8608004D0FFF741FD044612
:1010B00038E034E0FFF73CFD074604E0FFF738FD79
:1010C000C01B02282BD828688001F7D4206AB0F50D
:1010D000803F05D16868A16820F40030084368604B
:1010E000D4E908010843696821F474110843686071
:1010F000C6F86090FFF71CFD044606E025E000BF3F
:10110000FFF716FD001B022809D828688001F7D5D3
:101110001BE000BFFFF70CFD001B022802D90320D3
:10112000BDE8F88F28688001F4D40EE00128F7D0DC
:101130006868226A00F48031914204D1616A00F447
:101140007010884201D00120EAE70020E8E70000A3
:101150000010024000004242800442423C00002055
:101160000070004070B5040009D0606A002540B1ED
:1011700025616561A56294F8510040B10CE0012041
:1011800070BD6068B0F5827FF4D0E561F2E784F865
:101190005050204600F040F8022084F851002068AA
:1011A000016821F040010160A088218900F482706B
:1011B00001F404410843A18901F400610843217C42
:1011C00001F002010843217D01F001010843218B58
:1011D00001F400710843217F01F03801084394F8BD
:1011E000201001F080010843218D01F400510843D3
:1011F00021680860A069042101EA10402168486064
:101200002068C16921F40061C1616565012084F82D
:101210005100002070BD000030B585B0002400945E
:10122000019402940394254D03682548022103226A
:10123000AB421AD1836943F480538361836903F419
:1012400080530493836943F00403836180691D4DD7
:1012500000F004000490A020CDE90001039269464B
:101260002846FFF763FB40201EE0174DAB4222D11A
:10127000C36943F48043C361C36903F480430493A7
:10128000836943F0080383618069104D00F0080012
:1012900004904FF42040CDE90001039269462846AE
:1012A000FFF744FB4FF48040CDE90004694628462F
:1012B0000294FFF73BFB05B030BD00000030014059
:1012C000001002400008014000380040000C0140BE
:1012D0002DE9F84F044690F8500000270A9E1D465D
:1012E00092468B464FF0010901280ED0012084F868
:1012F0005000FFF71DFC804694F8510061680128FA
:101300000CD0B1F5827F07D102E00220BDE8F88F52
:10131000A16809B9042801D00227C2E0BBF1000F7F
:1013200027D0BAF1000F24D01DB394F8510004283F
:1013300002D0052084F8510000206065C4F838A070
:10134000E587A587C4F830B0E586A586206460648B
:1013500020680168490603D4016841F0400101603A
:10136000E068B0F5006F606805D0E8B3012D46D0A5
:101370007FE0012795E008B1012D39D1206B21686C
:101380000088C860206B801C2063E08E401EE086D1
:101390002EE02068816889070FD5E18E69B1B9F127
:1013A000010F0AD1216B0988C160206B801C20636A
:1013B000E08E401EE0864FF0000920688168C90772
:1013C0000CD0E18F51B1C068A16B0880A06B801C6C
:1013D000A063E08F401EE0874FF00109FFF7A8FBF4
:1013E000A0EB0800B04200E009E001D3701C50D12E
:1013F000E08E0028CDD1E08F0028CAD13FE0206BDD
:10140000216800780873206B401C2063E08E401E2A
:10141000E0862EE02068816889070FD5E18E69B1EA
:10142000B9F1010F0AD1216B09780173206B401CBF
:101430002063E08E401EE0864FF00009206881683E
:10144000C9070CD0E18F51B1C068A16B0870A06BC7
:10145000401CA063E08F401EE0874FF00109FFF7BA
:1014600067FBA0EB0800B04202D3701C01D010E073
:101470007EB1E08E0028CDD1E08F0028CAD142464F
:101480003146204600F0F8FD28B101272020606594
:1014900007E0032705E0A06818B92068C1688068E4
:1014A0000090012084F85100002084F85000384654
:1014B0002CE710B5401EB0F1807F01D3012010BD94
:1014C0004FF0E02460610F21601701F05CF900200B
:1014D000A06107202061002010BD70477047000008
:1014E00070B590F83C20012A2CD0012480F83C40B3
:1014F000022280F83D2003685A689D6822F0700639
:101500000A6832435A60104B02689A420ED00F4B61
:101510009A420BD0B2F1804F08D00D4B9A4205D0C1
:101520000C4B9A4202D00C4B9A4204D1496825F0E8
:1015300080031943916080F83D40002180F83C1001
:10154000084670BD022070BD002C014000340140EF
:101550000004004000080040000C004010B50400EA
:1015600003D094F83D0010B107E0012010BD002029
:1015700084F83C00204600F01FF8022084F83D006B
:10158000211D206800F040FE012084F8460084F808
:101590003E0084F83F0084F8400084F8410084F85D
:1015A000420084F8430084F8440084F8450084F83D
:1015B0003D00002010BD000008B50068B0F1804F6C
:1015C00012D10A48C16941F00101C161C06900221C
:1015D00000F00100009011461C20FFF715FBBDE84C
:1015E00008401C20FFF702BB08BD000000100240AD
:1015F00090F83D10012901D001207047022180F8A8
:101600003D100168CA6842F00102CA6000680E49D4
:1016100088420ED00D4988420BD0B0F1804F08D0DF
:101620000B49884205D00B49884202D00A498842BA
:1016300004D1816801F00701062903D0016841F057
:101640000101016000207047002C0140003401407E
:101650000004004000080040000C004070B5044643
:1016600090F83C00012817D0012584F83C50022056
:1016700084F83D002068826822F0770222F47F42DD
:1016800082600868502830D00DDC20284DD005DC61
:1016900098B310283BD148E0022070BD302844D0D8
:1016A000402834D139E0602828D0702806D0B0F521
:1016B000805F2CD0B0F5005F29D10AE0CB68D1E97A
:1016C0000121206800F0E6FD2068816841F0770183
:1016D00009E0CB68D1E90121206800F0DBFD20683A
:1016E000816841F48041816011E0CA6849682068DE
:1016F00000F0E2FD5021206807E016E0CA68496862
:10170000206800F0EAFD6021206800F0CDFD84F83B
:101710003D50002084F83C0070BDCA6849682068CC
:1017200000F0CAFD40212068EFE72268014610461C
:10173000EBE7704770B50446006801694FF000059B
:10174000C943890715D4C168C943890711D4E91E63
:10175000016101202077206880698007204602D03F
:10176000FFF7E7FF04E000F098F8204600F096F855
:10177000257720680169C943490717D4C168C9435F
:10178000490713D46FF0040101610220207720681B
:10179000806910F4407F204602D0FFF7CAFF04E0C2
:1017A00000F07BF8204600F079F825772068016981
:1017B000C943090716D4C168C943090712D46FF099
:1017C00008010161042020772068C0698007204655
:1017D00002D0FFF7AEFF04E000F05FF8204600F013
:1017E0005DF8257720680169C943C90617D4C16827
:1017F000C943C90613D46FF0100101610820207796
:101800002068C06910F4407F204602D0FFF791FFA6
:1018100004E000F042F8204600F040F82577206808
:101820000169C943C90708D1C168C943C90704D1BF
:10183000891E0161204600F033F820680169C94320
:10184000090609D4C168C943090605D46FF08001AF
:1018500001612046FFF741FE20680169C94349063E
:1018600009D4C168C943490605D46FF0400101613C
:10187000204600F021F820680169C94389060BD48D
:10188000C168C943890607D46FF020010161204671
:10189000BDE87040FFF722BE70BD70477047000082
:1018A0000349884203D103490888401C08807047D7
:1018B000340100200400002070477047704700008A
:1018C000F8B5026804461068D168536910F00F0F2C
:1018D0004FF0000553D003F0010601F49077374331
:1018E0005FD0C20705D0CA0503D5226C42F00102C1
:1018F0002264420705D5DA0703D0226C42F00202C7
:101900002264820705D5DA0703D0226C42F0040274
:101910002264020707D501F02002324303D0226C73
:1019200042F008022264226C002A34D0800604D5DA
:10193000880602D5204600F002FD20684069216C2F
:10194000C0F38010090700D430B3204600F0DFFC5C
:101950002068416949061BD5416921F04001416178
:10196000A06BA8B158494163A06BFEF739FF00286E
:1019700011D0A06B416B01B0BDE8F0400847830671
:101980000FD58B060DD52046BDE8F84000F0D7BC3A
:101990002046FFF793FFF8BD2046FFF78FFF256431
:1019A000F8BD266B2023012E52D1C60650D5CE0697
:1019B0004ED5106850680090506940062AD5A16B3A
:1019C000086840680004000CEAD0A68D8642E7D97A
:1019D000E0858869202818D0D06820F48070D06015
:1019E0002068416921F0010141612068416921F0CD
:1019F0004001416184F83E3025632068C16821F0D0
:101A00001001C160A06BFEF7C7FEA08DE18D401AEA
:101A100081B219E0A08DE18D401A81B2E08D0028DD
:101A2000BED00029BCD0D06820F49070D06020686F
:101A3000426922F00102426184F83E302563206849
:101A4000C26822F01002C2602046FFF736FFF8BDE0
:101A500005062BD50D0629D594F83D002128F6D191
:101A6000A068B0F5805F01D12069B0B1206A411C47
:101A70002162216800784860E08C401E0004000C60
:101A8000E084E4D12068C16821F08001C160206851
:101A9000C16841F04001C160F8BD206A0088C0F310
:101AA00008005060206A801C2062E5E74006F3D5FC
:101AB0004806F1D5D168204621F04001D16084F874
:101AC0003D3000F0D0F8F8BDFF22000870B50400EA
:101AD00004D094F83D00002510B106E0012070BD4F
:101AE00084F83C50204600F023F8242084F83D0080
:101AF0002068C16821F40051C160204600F07AFCE2
:101B00002068016921F4904101612068416921F058
:101B10002A0141612068C16841F40051C160256417
:101B2000202084F83D0084F83E00002070BD0000B5
:101B300030B585B0002400940194029403940068A9
:101B4000184988422CD11848816941F4804181614B
:101B5000816901F480410491816941F0040181614E
:101B60008069124D00F0040004904FF40070009062
:101B7000022001900320039069462846FEF7D6FE16
:101B80002815CDE90004694628460294FEF7CEFEEA
:101B9000002211462520FFF737F82520FFF726F809
:101BA00005B030BD0038014000100240000801407F
:101BB000704700002DE9F843044690F83D001F46A9
:101BC00016460D4620284CD1C5B1BEB194F83C0054
:101BD000012846D0012084F83C004FF00008C4F8EA
:101BE0004080212084F83D00FEF7A2FFA6848146B4
:101BF000E684A068B0F5805F03D004E00120BDE872
:101C0000F883206928B12E465FF0000584F83C80F7
:101C10000EE00026FAE78021204600F047FCA0B93C
:101C2000AEB116F8010B21684860E08C401EE084DC
:101C3000E08C4B464FF0000200970028EBD14FF0AC
:101C40004001204600F032FC30B10320D7E735F8E0
:101C5000020BC0F30800E6E7202084F83D000020D6
:101C6000CDE70220CBE77047FEE7000010B504493E
:101C70000448FEF76DFD0249491E087010BD0000C2
:101C800029000020140000202DE9F04385B0002534
:101C90002F480095019502950395816941F0100147
:101CA0008161816901F010010491816941F00401B1
:101CB0008161816901F004010491816941F00801A9
:101CC00081618069234F00F0080004900022012107
:101CD0003846FEF727FFDFF88080002210214046BB
:101CE000FEF720FFDFF87490BE140022314648460C
:101CF000FEF718FF01240094CDE9014569463846F6
:101D00000394FEF713FE042000901548CDE9010569
:101D100069464046FEF70AFE10208DE8310069460C
:101D200040460394FEF702FE0096CDE90145694660
:101D300048460394FEF7FAFD002211460820FEF7FC
:101D400063FF0820FEF752FF05B0BDE8F0830000F6
:101D5000001002400010014000080140000C01404A
:101D6000000031100F4810B50D4901604FF4827129
:101D7000416000218160C1604FF400720161C0E9DF
:101D800005120822C0E90721416281620A21C1626D
:101D9000FFF7E8F9002801D072B6FEE710BD000099
:101DA00000300140840000200F4810B50D4901604B
:101DB0004FF48271416000218160C1604FF4007274
:101DC0000161C0E905120822C0E907214162816270
:101DD0000A21C162FFF7C6F9002801D072B6FEE7FA
:101DE00010BD000000380040DC00002010B586B0B7
:101DF00000241648009401940294039404944FF034
:101E000080410594016049F63F41C0E901140A216F
:101E1000C0E903148461FFF7A1FB08B172B6FEE7C5
:101E20004FF48050009069460848FFF717FC08B14E
:101E300072B6FEE7049404A904480594FFF750FB2A
:101E4000002801D072B6FEE706B010BD34010020B4
:101E5000FEE7FEE7704700002DE9F05F23484FF0F2
:101E6000000823A1C46826482246FEF7D9F9244871
:101E7000FEF73EFB82B24FF480552B4620492148A5
:101E8000FFF798FEDFF87C901F4F4FF4007BAA46C7
:101E900009F144095D46AC4200D2A5B2641B41463B
:101EA0001A4801F058F9184B164908332A464431AC
:101EB000164801F0ADFB002609E000BF09EB060162
:101EC000534601220F48FFF775FE761CB6B2B8687C
:101ED0008642F3D3A844002CDCD1534602220CA145
:101EE0000848FFF767FE0020BDE8F09FF0230020C0
:101EF0006673697A653A20256C750D0A000000004A
:101F0000480000207C01002004000020F013002085
:101F10000D0A000003480021018001880229FCD33A
:101F2000704700000400002070B50546512000F005
:101F300059F878B9FF2000F011F900244FF6FF7628
:101F400000F0AAF8641CA4B2FE2801D0B442F7D372
:101F5000B44201D3052070BD00244FF4007600BFC9
:101F600000F09AF82855641CA4B2B442F8D3FF20BC
:101F700000F0F4F8FF2000F0F1F8002070BD70B51B
:101F80000546582000F02EF838BBFF2000F0E6F898
:101F9000FE2000F0E3F800244FF40076285D00F006
:101FA000DDF8641CA4B2B442F8D3FF2000F0D6F8E8
:101FB000FF2000F0D3F800F06FF8052181430CD129
:101FC00000244FF6FF7500F067F8641CA4B2FF28E8
:101FD00001D0AC42F7D3AC4201D3062070BD002043
:101FE00070BD00002DE9F04104460D46000607D5FE
:101FF00004F07F0400217720FFF7F4FF012837D891
:1020000001221C4F160331463846FEF78BFDFF2098
:1020100000F0A4F8002231463846FEF783FDFF2089
:1020200000F09CF8204600F099F8280E00F096F891
:10203000C5F3074000F092F8C5F3072000F08EF8D2
:10204000E8B200F08BF80120402C02D0482C02D0DE
:1020500002E0952000E0872000F080F85FF00A049D
:1020600000F01AF8010603D5641E14F0FF04F7D13E
:10207000BDE8F081000C014038B50B4600920446E3
:102080000022802100F00EF8002804D0606D40F09E
:1020900020006065032038BDFF2000F05FB8FF20FE
:1020A00000F05CB82DE9F8431E4691468846044688
:1020B000089DFEF73DFD401B351AFEF739FD07462A
:1020C00025480068C0F3CB30684338E0701C37D037
:1020D000FEF72EFDC01BA84203D215B1009860B3D5
:1020E0002CE02068416821F0E00141606068B0F5B3
:1020F000827F0BD1A068B0F5004F02D0B0F5806FA1
:1021000004D12068016821F040010160A06AB0F5A7
:10211000005F09D12068016821F400510160206846
:10212000016841F400510160012084F85100002051
:1021300084F850000320BDE8F8830025401E00907D
:102140002068816838EA010004D000214945BDD1EA
:102150000020F0E70121F9E73C00002001B582B042
:1021600000208DF804004FF480500090012301AA54
:1021700002A90648FFF7ACF820B10022012104486B
:10218000FEF7D0FC9DF804000EBD0000DC0000202E
:10219000001001407047FEF7D1BC30B58FB0282148
:1021A0006846FEF7F6F914210AA8FEF7F2F90121B4
:1021B0000804CDE900100024029402250491CDE921
:1021C00007504FF4402009906846FEF73BFE08B1E7
:1021D00072B6FEE70F20CDE90A054FF48060CDE925
:1021E0000C4001210AA80E94FEF740FD002801D002
:1021F00072B6FEE70FB030BD704700000148FFF730
:1022000099BA000034010020F0B502681C4B1D4D46
:102210001D4E1E4F1E4C4FF0804C984209D0A042DC
:1022200007D0604505D0A84203D0B04201D0B842E3
:1022300004D122F0700E4A6842EA0E02984209D098
:10224000A04207D0604505D0A84203D0B04201D0DB
:10225000B84203D122F44075CA682A434D6922F07E
:1022600080022A4302608A68C2620A6882629842D7
:1022700001D0A04201D10969016301214161F0BD92
:10228000002C01400004004000080040000C004009
:102290000034014010B5846842EA032224F47F44EC
:1022A0000A432243826010BD826822F070020A4312
:1022B00042F007018160704710B5036A046A24F098
:1022C00001040462846924F0F00444EA021423F057
:1022D0000A020A438461026210BD10B5036A23F04A
:1022E000100303628369046A23F4704343EA0232F1
:1022F00024F0A00343EA01118261016210BD10B510
:10230000406A0021C185C184FFF7D8FA10BD016879
:10231000CA6822F49072CA6001684A6922F0010218
:102320004A61016B012904D10168CA6822F01002D8
:10233000CA60202180F83E1000210163704708B573
:1023400090F83E10222901D0022008BD82684FF487
:1023500080539A4201D1016921B1816A9A421BD00E
:102360004AB10AE00268816A5268C2F308020A8030
:10237000816A891C08E0026972B10268526802F041
:102380007F020A70816A491C8162C18D491E09045D
:10239000090CC18503D019E002685268F1E70168B1
:1023A000CA6822F02002CA600168CA6822F48072FA
:1023B000CA6001684A6922F001024A61202180F85E
:1023C0003E10016B012903D0FFF7F2FB002008BD8E
:1023D000002101630168CA6822F01002CA60016826
:1023E0000A68D20602D50A6849680091818DFFF714
:1023F00064FAEBE770B5044600680169E26821F40D
:102400004051114301612169A06808436169084393
:102410002168CA6841F20C639A430243CA6020688B
:102420004169A26921F44071114341611E4920684C
:10243000884202D1FEF7C0FC01E0FEF7ADFC00EBE4
:10244000C00101EB0012606864218000B2FBF0F370
:10245000B3FBF1F36FF018067343B2FBF0F5B2FB78
:10246000F0F605EB8305322303EB0515B5FBF1F51B
:10247000B6FBF1F605F0F00505EB0615B2FBF0F63C
:10248000B2FBF0F0B0FBF1F06FF01802504306EB36
:10249000800003EB0010B0FBF1F0216800F00F00AA
:1024A0002844886070BD0000003801402DE9F041EB
:1024B000984617460E460446069D1DE0681C1BD034
:1024C0002DB1FEF735FBA0EB0800A84214D9206817
:1024D000C16821F4D071C1602068416921F0010117
:1024E0004161202084F83D0084F83E00002084F8FB
:1024F0003C000320BDE8F0812068006836EA000057
:1025000004D00020B842D9D00020F3E70120F9E739
:102510000148FFF7D5B900007C01002010B54FF449
:102520008053112207A10C48FFF744FBFFF7F2FC90
:1025300001F0A8FE094918B9087820F001000870D8
:10254000087810BD555345525F696E697469616CB6
:10255000697A650D0A0000007C010020100000204F
:102560002DE9F04115460C4606464FF480573B4690
:102570000C2214A11748FFF71DFB224616A119488B
:10258000FDF74EFE1748FDF7B3FF82B23B461549F3
:102590001048FFF70FFB16B10420BDE8F081124888
:1025A0000078C00701D00320F7E7022C04D00424F0
:1025B000FFF775FD2046F0E74FF4007028800024F7
:1025C000F6E70000555345525F696F63746C0D0A5E
:1025D000000000007C010020636D643A2025640D3A
:1025E0000A00000048000020100000202DE9F04102
:1025F0001D461446884606464FF480573B460B223C
:1026000018A11B48FFF7D6FA2B46224619A12048ED
:10261000FDF706FE1E48FDF76BFF82B23B461C49E4
:102620001348FFF7C7FA3EB935B11A480078C0071A
:1026300004D00320BDE8F0810420FBE716480078B1
:10264000400700D46402012D03D0FFF728FD0120CC
:10265000F0E721464046FFF767FCFFF720FD00202A
:10266000E8E70000555345525F726561640D0A004A
:102670007C010020736563746F723A20256C753B92
:1026800020636F756E743A2025640D0A0000000007
:1026900048000020100000200000002010B5044673
:1026A0004FF480530D2205A10848FFF783FA0CB1BF
:1026B000012010BD0648007810BD0000555345525A
:1026C0005F7374617475730D0A0000007C01002053
:1026D000100000202DE9F0411D46144688460646AC
:1026E0004FF480573B460C221AA11E48FFF762FAAE
:1026F00022461DA12048FDF793FD1F48FDF7F8FE77
:1027000082B23B461C491748FFF754FA3EB935B12F
:102710001A480178C90704D00320BDE8F0810420DD
:10272000FBE70078400701D50220F6E7144800785F
:10273000400700D46402012D03D0FFF7B0FC012054
:10274000EBE721464046FFF71AFCFFF7A8FC002004
:10275000E3E70000555345525F77726974650D0ACF
:10276000000000007C010020736563746F723A20E2
:10277000256C750D0A0000004800002010000020A4
:1027800000000020FEE70907090E002804DB00F125
:10279000E02080F80014704700F00F0000F1E02006
:1027A00080F8141D704730380A2801D20120704784
:1027B0000020704710B5044600F5805000220271D9
:1027C000521EC262204601F07FFC08B1032010BDFA
:1027D000B4F8FE01A0F52A41553901D0022010BD00
:1027E00094F83600B4F8371040EA01210848B0EBFD
:1027F000012F08D094F85210B4F8532041EA022176
:10280000B0EB012F01D1002010BD012010BD000050
:102810000046415400E0401C02780AB18A42FAD1D5
:10282000D0B27047F0B50022174B144600F5805027
:1028300002EB420653F826506DB10768BD420BD13A
:1028400003EB860587686E68BE4205D12D89C68870
:10285000B54204D000E00124521C022AE8D3022A27
:1028600001D079B904E05CB9022909D01220F0BD89
:1028700002EB420003EB80004089B0F5807F01D07D
:102880000020F0BD1020F0BD1C24002030B5002138
:10289000064A0C4601EB410352F82350854201D110
:1028A00042F82340491C0229F4D330BD1C240020E7
:1028B00000F58050426A006800F5805043898078B6
:1028C0004343B1FBF3F0121D02CA19B1884203D38E
:1028D000401AF8E70020704711680844704700F577
:1028E0008050891E4269921E8A4201D8002070479A
:1028F000826A807801FB002070472DE9F041804614
:102900000F0000F5805407D0404601F057FA022826
:1029100009D20120BDE8F081E66816B16069B042D5
:1029200007D8012605E0411CF4D061698142F1D845
:102930003E46354660696D1CA84202D80225022E2B
:102940000AD32946404601F039FA38B1411CE1D09A
:102950000128DFD0B542EDD10020DBE76FF07042F7
:102960002946404601F0CCFB30B957B12A463946DA
:10297000404601F0C5FB20B101280DD001252846B5
:10298000C8E7E5602069411CF9D0401E20616079EC
:1029900040F001006071F2E74FF0FF35EFE7000013
:1029A0002DE9F84F88460D6800E06D1C29782F2925
:1029B000FBD05C29F9D000F5805A0024DAF82070A9
:1029C0002646A85D761C202817D32F2815D05C2812
:1029D00013D0FF2C31D2012101F016F85FEA000973
:1029E0002BD0B9F1800F04D2014668A0FFF712FF87
:1029F00018BB27F81490641CE3E7AA19C8F8002054
:102A0000202801D2042516E0002514E007EB44003D
:102A100030F8020C20280DD02E280BD06CB10020ED
:102A200027F814000B222021DAF8180001F045FBEA
:102A3000002606E0641E002CE8D10620BDE8F88FD1
:102A4000761C37F816002028FAD02E28F8D01EB1B0
:102A500045F0030500E0641E2CB107EB440030F89C
:102A6000020C2E28F7D1002081464FF0080B009071
:102A700037F8160006F101065FEA000824D0B8F125
:102A8000200F04D0B8F12E0F04D1A64202D045F099
:102A90000305EDE70098584501D2A6421AD1BBF1D3
:102AA0000B0F0FD0A64201D045F003050CD84FF014
:102AB000080000904FEA896026464FF00B0B4FEA62
:102AC0001069D5E745F00305DAF818000178E52923
:102AD00038D039E04046B8F1800F10D3002100F023
:102AE00093FF5FEA000805D02B4901EB080010F8BE
:102AF000800C804645F00205B8F1000F04D0014675
:102B000026A0FFF787FE20B14FF05F0845F00305D0
:102B10000FE0A8F14100192802D849F0020908E0A5
:102B2000A8F16100192804D8413049F001091FFAC1
:102B300080F8DAF81820009902F801800098401C0B
:102B4000009095E705210170BBF1080F03D14FEA12
:102B500089604FEA1069C9F38100032803D06FEA46
:102B60000901890701D145F00205A90709D409F037
:102B70000301012901D145F01005012801D145F0DB
:102B80000805DAF81800C572002057E7222A3A3CF7
:102B90003E3F7C7F00000000EE4500082B2C3B3DB3
:102BA0005B5D0000401E022815D20C4B00EB40027A
:102BB00003EB82014889B0F5807F05D008B1401E43
:102BC00080B2488110B104E00020FAE7002043F809
:102BD0002200002070470220704700001C240020C3
:102BE0002DE9F14F82B00021029800F007FA002889
:102BF0007AD1029DFF2005F580554FF6FF7A0090AF
:102C00008146A5F824A02969286801F05DFA06002C
:102C10000DD16C69207848B1E17AE52801F03F01D7
:102C20006DD00A0704D50F2969D107E0042671E0A9
:102C30000F2903D0B9F1000F4AD04FE0296A89B3B8
:102C4000420606D5627B009220F04000EA88814669
:102C5000AA84484535D1627B0098824231D10191E6
:102C60002078A04620F04000401E00EB80010027A5
:102C7000DFF8A8B001EBC006012400BF1BF8071065
:102C800001EB0800008874B100F0DAFE0446FF2E64
:102C900017D2019830F81600761C00F0D1FEA04241
:102CA0000FD102E02FE050450BD17F1C0D2FE5D353
:102CB00098F80000400608D53CB1019830F816009D
:102CC00018B1FF2000F0FF091DE0A9F10100F9E7AC
:102CD000204601F0E1FB009988421BD0A869C17A27
:102CE000C9070CD10A2102E015E0491E06D314F8E9
:102CF000012B10F8013BD21AF7D000E052B14FF08F
:102D0000FF09A5F824A00021029800F009F80600A8
:102D10003FF479AF3046BDE8FE8F00006E460008F4
:102D20002DE9F04100F580540F46E688761C30040A
:102D3000000C38D0216991B3206800F58052538986
:102D40005B09B6FBF3F503FB1563002B67D1491C48
:102D50002161E16821B3538992785B09B6FBF3F3F3
:102D6000521E13425BD101F029F8054601281FD9F4
:102D7000681C39D0206841F214010958A94248D88A
:102D80006FB1E168FFF7B9FD05000FD0012D0FD03D
:102D9000681C29D0206801F0E0FB28BB0AE002E0B3
:102DA0001089B0423BD80420BDE8F0810720FBE742
:102DB0000220F9E741F20A0120680A5A002101F0D5
:102DC0007CF929462068FFF78AFD2168002701F574
:102DD00080514FF00108C8620FE000BF80F8048006
:102DE000206801F0BAFB08B10120DDE7206800F59A
:102DF0008050C16A491C7F1CC162206800F5805068
:102E00008178B942EAD8216801F58051C96AC91BA5
:102E1000C162E56029462068FFF761FD2061E68018
:102E200041F20A012068095A4909B6FBF1F201FB97
:102E3000126100EB411060610020B5E72DE9F14F10
:102E400084B00C22049C684604F58054A769266A65
:102E5000394601F029F99DF80B00C00718D0002071
:102E6000F872012520622B4632466946384600F04A
:102E700065FF0498FFF7B4FE10B96D1C642DF2D302
:102E8000642D0BD004280AD19DF80B00F87226623D
:102E90009DF80B0080070FD5002004E0072005B047
:102EA000BDE8F08F401C36F810100029FAD10D2132
:102EB0001930B0FBF1F600E00126049D0021284600
:102EC00000F09CF8A8B94FF0000805F58057396963
:102ED000386801F0F9F860B978690078E5280BD016
:102EE00050B14FF0000801212846FFF719FF0028D4
:102EF000EDD0042812D012E008F101083046B045A8
:102F0000F1D1461E5FEA060A59D0E1880498A1EB88
:102F10000A0100F073F8050003D06BE007200546B6
:102F200068E0A06901F0B8FA03902169206801F017
:102F3000CBF805005ED16169D4F8209003984873FE
:102F40000F20C8720020087388760AF0FF0BC8763D
:102F5000ABF1010000EB800202EBC00500234FF64D
:102F6000FF7E254E4A1C01E0604503D039F815006C
:102F7000F4466D1CF75CC85516F80380070A08F87C
:102F8000027000B960465B1C0D2BEDD3704502D07A
:102F900039F8150008B94BF0400B81F800B02168F2
:102FA000012001F58051087100210498FFF7B8FE57
:102FB00005001FD1AAF101005FEA000AB5D121691D
:102FC000206801F081F8050014D1202200216069F9
:102FD00001F073F8D4E905010B2201F065F8A0694E
:102FE0006169C07A00F0180008732168012001F5BA
:102FF00080510871284652E76E46000870B500F50A
:1030000080540D46E180A368012B42D0206800F572
:103010008050416999423CD923B90178032906D1EE
:10302000436A23B1418980784E09464312E0018901
:10303000A9422ED9406A13E000F0C0FE0346401CAE
:1030400025D0022B25D3206800F580504069984296
:103050001FD9AD1B2068B5421946EDD2FFF73FFCE2
:10306000E360B0B121680A4601F580514B895B09E4
:10307000B5FBF3F31844206148894009B5FBF0F132
:1030800000FB115002EB40106061002070BD012078
:1030900070BD022070BD0000084910B50B5C002215
:1030A00053B901220A540A1801EB8000127A4068D1
:1030B0000168104688470246104610BD342600209D
:1030C00030B4054C231804EB80001B7A4068046977
:1030D0001846A44630BC60473426002030B4054D65
:1030E0002C1805EB8000247A406885682046AC46A1
:1030F00030BC604734260020044A111802EB8000DF
:10310000097A4068426808461047000034260020CB
:1031100030B4054D2C1805EB8000247A4068C56852
:103120002046AC4630BC60473426002010B504462B
:1031300000F035FB00280DD1204601F037FA0028B9
:1031400008D104F58054A06AFFF72CFD002801D1B6
:103150000021216010BD2DE9FC5F0D46834601F082
:1031600025FA5FEA00096FD10BF58054E079002859
:103170006AD1606A01274FF0020A00287AD0691CE0
:1031800032D0E068A84200D20546A560002D5AD092
:103190005846691EFFF78CFB6061226801461046A5
:1031A000FFF79DFB00287ED023686D1E03F580533A
:1031B0005E899A78B5FBF6F1521E11400D18A06891
:1031C000B0FBF6F106FB11000028E0D0A269AA428C
:1031D000DDD0A07940063FD5587801235946FFF746
:1031E00097FF00287AD133E002C800912169834615
:1031F000022501B30026AD1C01918846761C20688B
:1032000000F0DCFD014601284DD9481C66D008F1CC
:1032100001008142F1D00098854206D8CBF80060C9
:103220000BF10400019A04C08346206800F5805029
:1032300040698842DED8606A05600098854204D8FB
:103240000020CBF80000B7E098E04FF01109B3E0A0
:10325000A07920F04000A0712068012300F5805083
:103260002A4640785946FFF739FF002836D1A56134
:10327000A2E0FFE7E068A84203D2A179890700D461
:1032800005464FF00008A068C4F808802DB32168F7
:103290000A4601F580518E7849894E4378B1691EFE
:1032A000B1FBF6F100E066E0401EB0FBF6F3994298
:1032B00005D3711E8843A0602D1A61690CE0216955
:1032C00049B900211046FFF718FB0146012852D0EA
:1032D000481C63D021616161E9B935E05EE0A07905
:1032E0008007206805D5FFF708FB010004D13546AB
:1032F00013E000F063FD0146481C4FD001293AD984
:10330000206800F580504069884234D96161A06826
:10331000AD1B3044A060B542E1D8A06841F20A027A
:103320002844A0602068125AB5FBF2F302FB135246
:1033300052B1FFF7D4FAF0B1216801F58051498903
:10334000B5FBF1F101EB00082068A16800F58050A1
:103350004289B1FBF2F302FB131121B3A26942458A
:1033600021D0A17949060FD5407801235946FFF7AE
:10337000CFFE98B904E084F807A00220BDE8FC9FC6
:10338000A07920F04000A0712068012300F5805052
:10339000424640785946FFF7A1FE10B1E77101207F
:1033A000ECE7C4F81880D4E90201884204D9E0604F
:1033B000A07940F02000A0714846DFE72DE9F741F1
:1033C00081B0904602980090684600F06CFD0400C1
:1033D00003D50B2004B0BDE8F081104E002756F84D
:1033E00024502DB12846FFF751FA05F580552F706E
:1033F0000198002803D000BF4FF480510F5446F8C5
:10340000240002D0B8F1010F01D00020E2E7002231
:1034100002A901A800F026FBDCE700004400002020
:103420002DE9F74FADF5825D98B100F580564FF06C
:10343000000802F01F0741F2440127F0010269442D
:103440000DF58050C6F8008000F00CFB040006D09B
:10345000D8E0092013B00DF5805DBDE8F08F41F292
:1034600028010DF580506944816168490162EB468D
:10347000416C584600F02CFC04000DF58050456965
:103480000BD11DB1780803D0012102E0062404E02D
:1034900000215846FFF7C6F9044617F01C0F75D0F7
:1034A0004FF0010AECB1042C14D15849002018390E
:1034B00002E0401C022805D200EB400251F8222015
:1034C000002AF6D1022803D05846FFF7B7FC00E0E7
:1034D000122004460DF5805047F00807456954B1A5
:1034E00090E0E87A10F0110F01D007248AE0780705
:1034F00001D5082486E0380756D500F0D2FCA87321
:10350000010AE973010C2974000E687485F80B80B8
:1035100085F81C8085F81D8085F81E800DF580508B
:1035200085F81F800068294600F028FD81460021AB
:10353000284600F0A9FF0DF58050B9F1000F006892
:1035400000F5805080F804A02CD00DF5805049463D
:10355000006800F58050D0F82CA00DF58050006870
:1035600000F05DFE04004DD10DF58050A9F1010180
:10357000006800F58050C1600DF58050514600682C
:1035800000F0A2FD04000BD03CE0FFE7D4BBE87ADA
:10359000C10601D5042435E0B90701D5C007A4D17F
:1035A000380701D547F020070DF58050006800F579
:1035B0008050C06AC6E90705780801D0012100E003
:1035C0000021584600F08EFCB062E8B1B7710DF5ED
:1035D000805086F8078047460068294600F0CEFCF8
:1035E0003061287FD5F81D1040EA0120C6E902703D
:1035F000B7610DF5805077620068306000F580504B
:10360000C088B080204625E70224FBE73424002050
:103610002DE9F04F884687B000219946154683462C
:10362000196000F0C3FF002812D10BF58054E07937
:1036300000280DD1A079C00709D0D4E90201081AE9
:1036400001274FF0020A854200D90546A2E0072073
:1036500007B0BDE8F08F2068A16800F580535E894F
:10366000B1FBF6F206FB1212002A73D1B1FBF6F29F
:103670009B785B1E1A4012F0FF0610D129B1626AD6
:103680002AB15846FFF714F904E0206902E06169A5
:1036900000F094FB02281FD3411C55D06061616982
:1036A0002068FFF71CF9B8B130440090206800F59D
:1036B00080504189B5FBF1F1039151B372188178C3
:1036C0008A4201D9891B039140784146039B009AA5
:1036D000FFF704FDC0BB03E084F807A00220B7E7B2
:1036E000A07940060ED5A1690098081A039988426E
:1036F00008D2216801F580514A89594600FB0280B1
:1037000000F0D2FC206800F58050468903984643BB
:1037100036E0A26900998A421AD0A179490609D5F2
:10372000407801235946FFF7F3FC68B9A07920F0EF
:103730004000A0712068012300F580505946407870
:10374000009AFFF7CBFC18B1E771012080E701E098
:103750000098A0612068A16800F580504089B1FB05
:10376000F0F200FB1212861AAE4200D92E46B1FBCF
:10377000F0F200FB121159443246404600F094FC2E
:10378000A068B0443044A060D9F800008119AD1B96
:10379000C9F80010002D7FF45EAF002058E770B527
:1037A000054600F003FF002811D105F58054A179EA
:1037B0008A060CD548060FD52068012300F58050F5
:1037C00029464078A269FFF7A3FC08B1012070BD2B
:1037D000A07920F04000A071E169206800F074FC3D
:1037E0000028F4D1256AE87A40F02000E872207BB6
:1037F0002877A089000A6877E068000CA877E0685D
:10380000000EE8772846216900F03EFE00F049FBF3
:10381000A875010AE975010C2976000E687600206A
:10382000A874E874A079012120F02000A07120681C
:1038300000F5805001712068BDE8704000F039BE8D
:103840002DE9FC5F8846002199461546834619609C
:1038500000F0ACFE002808D10BF58054E079002878
:1038600003D1A079800702D40720BDE8FC9FA0689F
:10387000012741194FF0020A81427AD3B5E020684E
:10388000A168024600F580504389B1FBF3F603FBC3
:103890001616002E6ED1B1FBF3F38078401E034064
:1038A00013F0FF0618D129B1606A38B15846FEF707
:1038B000FFFF07E0206938B9002100E06169104688
:1038C000FFF71BF8002854D0012833D0411C62D0E8
:1038D0006061216901B92061A07940060DD5206899
:1038E000012300F5805059464078A269FFF710FC8B
:1038F000F0BBA07920F04000A07161692068FEF75C
:10390000EEFFB8B130440190206800F58050418945
:10391000B5FBF1F1009171B3721881788A4201D937
:10392000891B0091DDE9003240784146FFF7F0FB4A
:10393000F0B903E084F807A0022096E7A169019896
:10394000081A009988420CD2216801F580514A89F1
:1039500000FB0281584600F0A7FBA07920F0400050
:10396000A071206800F5805046890098464332E0F7
:1039700011E03DE014E0FFE7A169019A91420DD00A
:10398000D4E90212914209D2407801235946019AA2
:10399000FFF7A4FB10B1E771012066E70198A06171
:1039A0002068A16800F580504089B1FBF0F200FB6F
:1039B0001212861AAE4200D92E46B1FBF0F200FB7D
:1039C000121101EB0B003246414600F06DFBA0796D
:1039D00040F04000A071A068B0443044A060D9F825
:1039E0000000AD1B3044C9F80000002D7FF447AF44
:1039F000D4E90201884200D9E060A07940F02000BB
:103A0000A071002031E70000802804D30B4A51B197
:103A1000FF2801D90020704702EB4000A0F580503C
:103A2000B0F8000F704732F81130834203D0491CC0
:103A300089B28029F7D38031C8B27047A846000800
:103A40000021064B00E0491C33F81120002A04D065
:103A50008242F8D1024830F811007047A8470008A8
:103A6000884900082DE9FF5F4FF0000B0546C0F8BC
:103A700000B01746084600F016FA060003D50B20E2
:103A800004B0BDE8F09F8F4850F826409CB12C60F0
:103A900004F58055287820B16878FFF72DFBC10721
:103AA0000BD085F800B0F0B26870FFF7F5FAC107E7
:103AB00008D00320E4E70C20E2E70FB1400704D46C
:103AC0000020DDE71FB1400701D50A20D8E741F209
:103AD0000A01621868780221FFF7F2FA78BB688958
:103AE000B0F5007F34D3B0F5805F31D80026314681
:103AF0002046FEF75FFE012826D100204FEA0D0286
:103B000004EB001191F8C23101F5DF712BB10B7A92
:103B1000D1F8091043EA012100E0002142F8201009
:103B2000401C0428ECD300274FEA020858F827600D
:103B300036B131462046FEF73DFE10B90AE007E0F7
:103B400002207F1C042FF1D3032801D0F0BB01E039
:103B5000012095E7B4F80B00B5F80AC060455FD1C5
:103B6000E18A29B994F82400D4F8251040EA01210B
:103B7000A961207C8A46E870012801D002284FD133
:103B800000FB01F9607BA87000B3411E084247D1D9
:103B9000B4F811104FEA5C12B1FBF2F302FB1313FD
:103BA00029819BB9B4F813702FB994F82030D4F858
:103BB000217043EA0727E38943B1B1FBF2F803EB35
:103BC0000902424497422BD3BF1A00E028E0B7FB1A
:103BD000F0F028B3012740F6F678404500D30227DD
:103BE0004FF6F678404500D30327801C3244AA6282
:103BF00033446861C5E90763032F13D081B103EB38
:103C000009016962022F18D000F0010100EB4000A9
:103C100001EB5000401E6044B0FBFCF151450ED951
:103C20000D202DE70029FBD194F82C10D4F82D207D
:103C3000800041EA02216962ECE74000EAE74FF0C8
:103C4000FF302861E86080206871032F2ED1208E1C
:103C500001282BD12046711C00F036FA30BB85F8C4
:103C600005B0B4F8FE01A0F52A4155391ED12078DF
:103C7000D4F8011040EA01201349884216D194F883
:103C8000E401D4F8E51140EA0120104988420DD141
:103C900094F8E801D4F8E91140EA0120286194F889
:103CA000EC01D4F8ED1140EA0120E86005492F70DD
:103CB000091F0888401C0880E8802046FEF7E6FDC2
:103CC000FEE60000440000205252614172724161E0
:103CD00073B50546019801782F2901D05C2901D1DF
:103CE000401C019005F580540026A66001980078DC
:103CF000202805D200212846FFF780F966617CBDA7
:103D000001A92846FEF74CFE0028F8D12846FEF708
:103D100067FFA169C97A28B10428F0D14907EED418
:103D200005207CBD4907FCD46169C87AC006F7D577
:103D3000206800F023F9A060E2E700007CB5164699
:103D40001C4605460B2200F0AFF9052C11D91A4A82
:103D50000CE00021B61C2346044663F35F044008D0
:103D6000E30300D55440491C1029F4D330880028BF
:103D7000EFD107214FEA0D0204F00F00303039284F
:103D800000D9C01D5054491E2409F5D17E2050543D
:103D9000002000E0401C884202D22B5C202BF9D18D
:103DA000082902D2535C491C00E020232B54401CFC
:103DB0000828F5D37CBD0000211001002DE9F04753
:103DC0000D46074602290DD307F580546069A842C5
:103DD00008D920784FF0FF36012807D0022832D0CA
:103DE000032844D001263046BDE8F087618905EB01
:103DF0005508B8FBF1F0216A0144384600F064F937
:103E00000028F0D16189B8FBF1F201FB128008F1C2
:103E1000010817F80090B8FBF1F0216A0144384618
:103E200000F052F90028DED16189B8FBF1F201FB04
:103E30001280395C49EA0120E90701D00609D2E77E
:103E4000C0F30B06CFE76089216A4008B5FBF0F0AC
:103E50000144384600F038F90028C4D1618968006F
:103E6000B0FBF1F201FB120038440688BBE7608921
:103E7000216A8008B5FBF0F00144384600F024F9CF
:103E80000028B0D16189A800B0FBF1F201FB12005B
:103E900038440178D0F8010041EA002020F0704653
:103EA000A1E70020704710B504464FF0FF302268AC
:103EB000002A13D0114600E0491C0B78202B0ED3AA
:103EC0003A2BF9D112F8013B303B0A2B06D28A4239
:103ED00004D1002B02D1491C1846216010BD0020DE
:103EE00010BD0000F0B500F5805323481C68002287
:103EF00002EB420550F82560A64209D100EB85058A
:103F00009F686E68BE4203D12D89DE88B54202D01B
:103F1000521C022AECD3022A18D1002202E0521CC1
:103F2000022A05D202EB420550F82550002DF6D1A9
:103F3000022A13D002EB420540F8254000EB85042D
:103F40009E686660DB88238100236381002902EB81
:103F5000420100EB8101498902D019B10020F0BD76
:103F6000491C01E04FF4807102EB420300EB830037
:103F70004181501CF0BD00001C240020024602F5C7
:103F80008052488B1278032A02D1898A40EA014084
:103F90007047000086B0142233A16846FCF7C7FAC8
:103FA000FCF7D4FDFEF7F9F8FDF76EFEFDF7FCFE19
:103FB000FDF71CFF324831490C2201604FF461319A
:103FC000416000218160C160C0E904128161C1616A
:103FD000FDF77CFD08B172B6FEE7FDF747FEFDF781
:103FE000C1FE27484838FDF703FB26484078FFF715
:103FF00053F8002224492548FFF7E0F908B172B6CA
:10400000FEE72048012222A13030FFF709FA08B16B
:1040100072B6FEE7FDF720FF1A483030FFF786F84A
:10402000002219491948FFF7C9F908B172B6FEE72D
:1040300014480A2218A13030FFF7F2F908B172B61D
:10404000FEE71048174B142269463030FFF7F8FBA3
:104050001449091F496801B108B172B6FEE7094861
:104060003030FFF763F8FEE748656C6C6F206672CE
:104070006F6D2053544D333221212100003801400F
:104080007C010020C013002029000020C003002074
:104090003132332E747874006D7977726974652EBD
:1040A000747874000800002004E000BF11F8013BA0
:1040B00000F8013B521EF9D27047C9B201E000F886
:1040C000011B521EFBD270472DE9F04100F58054D0
:1040D0000746E06A0E460025B0420ED0384600F092
:1040E0003CFA050009D16078012332463946FEF7D3
:1040F000F5FF08B16E1E0125E6622846BDE8F08195
:104100002DE9F04717460D460646022904D306F569
:1041100080546069A84202D80220BDE8F087217867
:1041200007F0FF094FF0010A012924D002295DD0D0
:104130000329F1D16089216A8008B5FBF0F00144C0
:104140003046FFF7C1FF0028E7D16289A900B1FB23
:10415000F2F302FB13118A194FF07043D2F80110E9
:1041600003EA0121394311700B0A53700B0C937051
:10417000090ED17050E0618905EB5508B8FBF1F0EC
:10418000216A01443046FFF79FFF0028C5D16189AD
:10419000B8FBF1F201FB1280304408F10108E90795
:1041A00003D0017869F31F1100E03946017084F8EB
:1041B00004A06189B8FBF1F0216A01443046FFF7A1
:1041C00083FF0028A9D16289B8FBF2F302FB1381B7
:1041D0003144EA0702D0C7F3071205E00A78C7F3B3
:1041E000032302F0F0021A430A7015E06089216A85
:1041F0004008B5FBF0F001443046FFF765FF0028AA
:104200008BD162896900B1FBF2F302FB13113144D7
:104210003A0A81F800904A7084F804A07DE72DE9FD
:10422000F0410F468046022918D308F58055686989
:10423000B84213D900261FE039464046FFF7BEFDBD
:1042400004001CD0012C09D0601C09D00022394682
:104250004046FFF755FF060011D103E002260EE0AD
:1042600001260CE02869411C05D0401C28616879B2
:1042700040F00100687127466869B842DCD83046D2
:10428000BDE8F0812DE9FE4F012211466A48FCF796
:1042900049FC6A4D4FF0000885F80080684E3020D8
:1042A000F769F0613046FCF75DFFDFF898A14FF445
:1042B0008059012249465046FCF734FC0024FF2077
:1042C000FDF74CFF641CE4B20A2CF8D35C48F7619C
:1042D000FCF748FF00224F4649465046FCF722FCB7
:1042E00000214020FDF77EFE012802D00120BDE81C
:1042F000FE8FFF20FDF732FF4FF4D5714820FDF708
:1043000071FE012809D00021E920FDF76BFE01288C
:1043100069D802202870E92668E000240DF108061B
:10432000FDF7BAFE3055641CE4B2042CF8D39DF8B6
:104330000B109DF80A00CDE900019DF809309DF8A9
:10434000082041A14948FBF76BFF4848FCF7D0F82B
:1043500082B23B4645494648FDF72CFC9DF80A00D1
:10436000012858D19DF80B00AA2854D142F6E064E8
:104370004FF0804803E0641E24B2002C4BD041462D
:10438000E920FDF72FFE0028F5D15CB300217A204B
:10439000FDF728FE30BB0024FDF77EFE3055641C7F
:1043A000E4B2042CF8D39DF80B109DF80A00CDE977
:1043B00000019DF809309DF8082023A12B48FBF748
:1043C0002FFF2A48FCF794F882B23B462749284839
:1043D000FDF7F0FB9DF80800400601D50C2000E039
:1043E0000420287017E001202870412646F2A81406
:1043F00002E0641E24B264B100213046FDF7F2FDF4
:104400000028F6D12CB14FF400715020FDF7EAFDE1
:1044100008B14046E5E72A7816A11448FBF700FFEB
:104420001248FCF765F882B23B4610491048FDF788
:10443000C1FB00205BE700000010014000000020ED
:10444000DC000020000C01404F43523A2030782518
:1044500030325820307825303258203078253032AC
:1044600058203078253032580D0A000048000020CE
:104470007C010020547970652053443A203078251F
:104480003032580D0A00000081760A0AC2760A0C02
:104490000275090E41757047014600200B22430842
:1044A00003EBC01011F8013B521E1844C0B2F6D104
:1044B000704770B5044600F050F806004BD104F583
:1044C0008055287803283FD1687901283CD16A8932
:1044D00000212046FFF7F1FD552084F8FE01AA20B7
:1044E00084F8FF015220207060706120A07041218B
:1044F000E170722284F8E42184F8E52184F8E61161
:1045000084F8E701286984F8E801010A84F8E911D0
:10451000010C84F8EA11000E84F8EB01E86884F8D5
:10452000EC01010A84F8ED11010C84F8EE11000E83
:1045300084F8EF01EA690123521CEA626878214697
:10454000FEF7E6FD00206871002268781146FEF74C
:10455000B7FD00B10126304670BD2DE9F04100F5F0
:104560008054804620790027E8B1E56A607801230D
:104570002A464146FEF7CCFD08B1012713E0002092
:104580002071206AA169281A88420CD2E67808E0D6
:10459000A0690123054460782A464146FEF7B8FD2C
:1045A000761E022EF4D23846BDE8F08110B580B1F7
:1045B00000F58050016861B101F580510A7842B17F
:1045C000CA888088824204D14878FEF795FDC007EA
:1045D00000D0092010BD0000000000000000010212
:1045E0000304060708090000000001020304809A82
:1045F00090B68EB78F80D2D3D4D8D7DE8E8F9092DC
:1046000092E299E3EAEB59999A9D9C9D9E9FB5D6BB
:10461000E0E9A5A5A6A7A8A9AAABAC21AEAFB0B109
:10462000B2B3B4B5B6B7B8B9BABBBCBDBEBFC0C1F2
:10463000C2C3C4C5C7C7C8C9CACBCCCDCECFD0D1E1
:10464000D2D3D4D5D6D7D8D9DADBDCDDDEDFE0E1D2
:10465000E2E3E5E5E6E7E7E9EAEBEDEDEEEFF0F1C1
:10466000F2F3F4F5F6F7F8F9FAFBFCFDFEFF0103AF
:104670000507090E10121416181C1E000004000273
:10468000000180004000200010000800040002002B
:1046900000000080004000200010000800400020C2
:1046A0000010000800040002C700FC00E900E2005E
:1046B000E400E000E500E700EA00EB00E800EF00BE
:1046C000EE00EC00C400C500C900E600C600F4001E
:1046D000F600F200FB00F900FF00D600DC00F80055
:1046E000A300D800D7009201E100ED00F300FA002A
:1046F000F100D100AA00BA00BF00AE00AC00BD00BE
:10470000BC00A100AB00BB0091259225932502259A
:104710002425C100C200C000A900632551255725EA
:104720005D25A200A5001025142534252C251C2567
:1047300000253C25E300C3005A255425692566253C
:10474000602550256C25A400F000D000CA00CB00E5
:10475000C8003101CD00CE00CF0018250C258825DA
:104760008425A600CC008025D300DF00D400D20031
:10477000F500D500B500FE00DE00DA00DB00D90050
:10478000FD00DD00AF00B400AD00B1001720BE0099
:10479000B600A700F700B800B000A800B700B90045
:1047A000B300B200A025A0006100620063006400B5
:1047B000650066006700680069006A006B006C00B5
:1047C0006D006E006F007000710072007300740065
:1047D000750076007700780079007A00A100A200C9
:1047E000A300A500AC00AF00E000E100E200E300A0
:1047F000E400E500E600E700E800E900EA00EB007D
:10480000EC00ED00EE00EF00F000F100F200F3002C
:10481000F400F500F600F800F900FA00FB00FC00D7
:10482000FD00FE00FF000101030105010701090170
:104830000B010D010F0111011301150117011901E0
:104840001B011D011F012101230125012701290150
:104850002B012D012F0131013301350137013A01BF
:104860003C013E01400142014401460148014B0127
:104870004D014F01510153015501570159015B0190
:104880005D015F01610163016501670169016B0100
:104890006D016F0171017301750177017A017C016E
:1048A0007E019201B103B203B303B403B503B603AF
:1048B000B703B803B903BA03BB03BC03BD03BE030C
:1048C000BF03C003C103C303C403C503C603C703B7
:1048D000C803C903CA033004310432043304340466
:1048E000350436043704380439043A043B043C04E4
:1048F0003D043E043F044004410442044304440494
:10490000450446044704480449044A044B044C0443
:104910004D044E044F0451045204530454045504EE
:1049200056045704580459045A045B045C045E049A
:104930005F04702171217221732174217521762108
:104940007721782179217A217B217C217D217E218B
:104950007F2141FF42FF43FF44FF45FF46FF47FFE2
:1049600048FF49FF4AFF4BFF4CFF4DFF4EFF4FFFF3
:1049700050FF51FF52FF53FF54FF55FF56FF57FFA3
:1049800058FF59FF5AFF0000410042004300440015
:10499000450046004700480049004A004B004C00D3
:1049A0004D004E004F005000510052005300540083
:1049B000550056005700580059005A002100E0FFEA
:1049C000E1FFE5FFE2FFE3FFC000C100C200C3005A
:1049D000C400C500C600C700C800C900CA00CB009B
:1049E000CC00CD00CE00CF00D000D100D200D3004B
:1049F000D400D500D600D800D900DA00DB00DC00F6
:104A0000DD00DE0078010001020104010601080159
:104A10000A010C010E011001120114011601180106
:104A20001A011C011E012001220124012601280176
:104A30002A012C012E0130013201340136013901E5
:104A40003B013D013F0141014301450147014A014D
:104A50004C014E01500152015401560158015A01B6
:104A60005C015E01600162016401660168016A0126
:104A70006C016E01700172017401760179017B0194
:104A80007D0191019103920393039403950396038F
:104A90009703980399039A039B039C039D039E032A
:104AA0009F03A003A103A303A403A503A603A703D5
:104AB000A803A903AA031004110412041304140484
:104AC000150416041704180419041A041B041C0402
:104AD0001D041E041F0420042104220423042404B2
:104AE000250426042704280429042A042B042C0462
:104AF0002D042E042F0401040204030404040504FD
:104B000006040704080409040A040B040C040E0438
:104B10000F046021612162216321642165216621E6
:104B20006721682169216A216B216C216D216E2129
:104B30006F2121FF22FF23FF24FF25FF26FF27FFF0
:104B400028FF29FF2AFF2BFF2CFF2DFF2EFF2FFF11
:104B500030FF31FF32FF33FF34FF35FF36FF37FFC1
:104B600038FF39FF3AFF0000303132333435363701
:104B700038394142434445464030580030313233A1
:104B800034353637383961626364656640307800A1
:104B90000400000800000000000000020001000006
:104BA00010000000C44B0008000000204800000076
:104BB0006C0100080C4C000848000020582C000034
:104BC0008801000800000000000000000000000054
:104BD00000000000010000001D2500089D260008BF
:104BE000ED250008D526000861250008000000001A
:104BF00000000000010000001000000000000000A4
:0C4C00000024F400000000000000000090
:0400000508000131BD
:00000001FF
